
QuadCopter.elf:     file format elf32-avr

Sections:
Idx Name          Size      VMA       LMA       File off  Algn
  0 .data         00000000  00800100  00800100  0000026e  2**0
                  CONTENTS, ALLOC, LOAD, DATA
  1 .text         000001fa  00000000  00000000  00000074  2**1
                  CONTENTS, ALLOC, LOAD, READONLY, CODE
  2 .bss          00000004  00800100  00800100  0000026e  2**0
                  ALLOC
  3 .comment      00000030  00000000  00000000  0000026e  2**0
                  CONTENTS, READONLY
  4 .note.gnu.avr.deviceinfo 0000003c  00000000  00000000  000002a0  2**2
                  CONTENTS, READONLY
  5 .debug_info   000005f4  00000000  00000000  000002dc  2**0
                  CONTENTS, READONLY, DEBUGGING
  6 .debug_abbrev 000005a2  00000000  00000000  000008d0  2**0
                  CONTENTS, READONLY, DEBUGGING
  7 .debug_line   00000133  00000000  00000000  00000e72  2**0
                  CONTENTS, READONLY, DEBUGGING
  8 .debug_str    00000208  00000000  00000000  00000fa5  2**0
                  CONTENTS, READONLY, DEBUGGING

Disassembly of section .text:

00000000 <__vectors>:
   0:	19 c0       	rjmp	.+50     	; 0x34 <__ctors_end>
   2:	33 c0       	rjmp	.+102    	; 0x6a <__bad_interrupt>
   4:	32 c0       	rjmp	.+100    	; 0x6a <__bad_interrupt>
   6:	31 c0       	rjmp	.+98     	; 0x6a <__bad_interrupt>
   8:	30 c0       	rjmp	.+96     	; 0x6a <__bad_interrupt>
   a:	2f c0       	rjmp	.+94     	; 0x6a <__bad_interrupt>
   c:	2e c0       	rjmp	.+92     	; 0x6a <__bad_interrupt>
   e:	2d c0       	rjmp	.+90     	; 0x6a <__bad_interrupt>
  10:	2c c0       	rjmp	.+88     	; 0x6a <__bad_interrupt>
  12:	2b c0       	rjmp	.+86     	; 0x6a <__bad_interrupt>
  14:	2a c0       	rjmp	.+84     	; 0x6a <__bad_interrupt>
  16:	29 c0       	rjmp	.+82     	; 0x6a <__bad_interrupt>
  18:	28 c0       	rjmp	.+80     	; 0x6a <__bad_interrupt>
  1a:	27 c0       	rjmp	.+78     	; 0x6a <__bad_interrupt>
  1c:	26 c0       	rjmp	.+76     	; 0x6a <__bad_interrupt>
  1e:	25 c0       	rjmp	.+74     	; 0x6a <__bad_interrupt>
  20:	24 c0       	rjmp	.+72     	; 0x6a <__bad_interrupt>
  22:	23 c0       	rjmp	.+70     	; 0x6a <__bad_interrupt>
  24:	22 c0       	rjmp	.+68     	; 0x6a <__bad_interrupt>
  26:	21 c0       	rjmp	.+66     	; 0x6a <__bad_interrupt>
  28:	20 c0       	rjmp	.+64     	; 0x6a <__bad_interrupt>
  2a:	1f c0       	rjmp	.+62     	; 0x6a <__bad_interrupt>
  2c:	1e c0       	rjmp	.+60     	; 0x6a <__bad_interrupt>
  2e:	1d c0       	rjmp	.+58     	; 0x6a <__bad_interrupt>
  30:	1c c0       	rjmp	.+56     	; 0x6a <__bad_interrupt>
  32:	1b c0       	rjmp	.+54     	; 0x6a <__bad_interrupt>

00000034 <__ctors_end>:
  34:	11 24       	eor	r1, r1
  36:	1f be       	out	0x3f, r1	; 63
  38:	cf ef       	ldi	r28, 0xFF	; 255
  3a:	d4 e0       	ldi	r29, 0x04	; 4
  3c:	de bf       	out	0x3e, r29	; 62
  3e:	cd bf       	out	0x3d, r28	; 61

00000040 <__do_copy_data>:
  40:	11 e0       	ldi	r17, 0x01	; 1
  42:	a0 e0       	ldi	r26, 0x00	; 0
  44:	b1 e0       	ldi	r27, 0x01	; 1
  46:	ea ef       	ldi	r30, 0xFA	; 250
  48:	f1 e0       	ldi	r31, 0x01	; 1
  4a:	02 c0       	rjmp	.+4      	; 0x50 <__do_copy_data+0x10>
  4c:	05 90       	lpm	r0, Z+
  4e:	0d 92       	st	X+, r0
  50:	a0 30       	cpi	r26, 0x00	; 0
  52:	b1 07       	cpc	r27, r17
  54:	d9 f7       	brne	.-10     	; 0x4c <__do_copy_data+0xc>

00000056 <__do_clear_bss>:
  56:	21 e0       	ldi	r18, 0x01	; 1
  58:	a0 e0       	ldi	r26, 0x00	; 0
  5a:	b1 e0       	ldi	r27, 0x01	; 1
  5c:	01 c0       	rjmp	.+2      	; 0x60 <.do_clear_bss_start>

0000005e <.do_clear_bss_loop>:
  5e:	1d 92       	st	X+, r1

00000060 <.do_clear_bss_start>:
  60:	a4 30       	cpi	r26, 0x04	; 4
  62:	b2 07       	cpc	r27, r18
  64:	e1 f7       	brne	.-8      	; 0x5e <.do_clear_bss_loop>
  66:	78 d0       	rcall	.+240    	; 0x158 <main>
  68:	c6 c0       	rjmp	.+396    	; 0x1f6 <_exit>

0000006a <__bad_interrupt>:
  6a:	ca cf       	rjmp	.-108    	; 0x0 <__vectors>

0000006c <set_led>:
  6c:	82 30       	cpi	r24, 0x02	; 2
  6e:	89 f0       	breq	.+34     	; 0x92 <set_led+0x26>
  70:	18 f4       	brcc	.+6      	; 0x78 <set_led+0xc>
  72:	81 30       	cpi	r24, 0x01	; 1
  74:	31 f0       	breq	.+12     	; 0x82 <set_led+0x16>
  76:	08 95       	ret
  78:	83 30       	cpi	r24, 0x03	; 3
  7a:	99 f0       	breq	.+38     	; 0xa2 <set_led+0x36>
  7c:	84 30       	cpi	r24, 0x04	; 4
  7e:	c9 f0       	breq	.+50     	; 0xb2 <set_led+0x46>
  80:	08 95       	ret
  82:	66 23       	and	r22, r22
  84:	11 f0       	breq	.+4      	; 0x8a <set_led+0x1e>
  86:	5a 9a       	sbi	0x0b, 2	; 11
  88:	01 c0       	rjmp	.+2      	; 0x8c <set_led+0x20>
  8a:	5a 98       	cbi	0x0b, 2	; 11
  8c:	60 93 00 01 	sts	0x0100, r22	; 0x800100 <__data_end>
  90:	08 95       	ret
  92:	66 23       	and	r22, r22
  94:	11 f0       	breq	.+4      	; 0x9a <set_led+0x2e>
  96:	43 9a       	sbi	0x08, 3	; 8
  98:	01 c0       	rjmp	.+2      	; 0x9c <set_led+0x30>
  9a:	43 98       	cbi	0x08, 3	; 8
  9c:	60 93 01 01 	sts	0x0101, r22	; 0x800101 <__data_end+0x1>
  a0:	08 95       	ret
  a2:	66 23       	and	r22, r22
  a4:	11 f0       	breq	.+4      	; 0xaa <set_led+0x3e>
  a6:	42 9a       	sbi	0x08, 2	; 8
  a8:	01 c0       	rjmp	.+2      	; 0xac <set_led+0x40>
  aa:	42 98       	cbi	0x08, 2	; 8
  ac:	60 93 02 01 	sts	0x0102, r22	; 0x800102 <__data_end+0x2>
  b0:	08 95       	ret
  b2:	66 23       	and	r22, r22
  b4:	11 f0       	breq	.+4      	; 0xba <set_led+0x4e>
  b6:	41 9a       	sbi	0x08, 1	; 8
  b8:	01 c0       	rjmp	.+2      	; 0xbc <set_led+0x50>
  ba:	41 98       	cbi	0x08, 1	; 8
  bc:	60 93 03 01 	sts	0x0103, r22	; 0x800103 <__data_end+0x3>
  c0:	08 95       	ret

000000c2 <_init_sequence>:
  c2:	61 e0       	ldi	r22, 0x01	; 1
  c4:	81 e0       	ldi	r24, 0x01	; 1
  c6:	d2 df       	rcall	.-92     	; 0x6c <set_led>
  c8:	2f e7       	ldi	r18, 0x7F	; 127
  ca:	88 e3       	ldi	r24, 0x38	; 56
  cc:	91 e0       	ldi	r25, 0x01	; 1
  ce:	21 50       	subi	r18, 0x01	; 1
  d0:	80 40       	sbci	r24, 0x00	; 0
  d2:	90 40       	sbci	r25, 0x00	; 0
  d4:	e1 f7       	brne	.-8      	; 0xce <_init_sequence+0xc>
  d6:	00 c0       	rjmp	.+0      	; 0xd8 <_init_sequence+0x16>
  d8:	00 00       	nop
  da:	60 e0       	ldi	r22, 0x00	; 0
  dc:	81 e0       	ldi	r24, 0x01	; 1
  de:	c6 df       	rcall	.-116    	; 0x6c <set_led>
  e0:	61 e0       	ldi	r22, 0x01	; 1
  e2:	82 e0       	ldi	r24, 0x02	; 2
  e4:	c3 df       	rcall	.-122    	; 0x6c <set_led>
  e6:	2f e7       	ldi	r18, 0x7F	; 127
  e8:	88 e3       	ldi	r24, 0x38	; 56
  ea:	91 e0       	ldi	r25, 0x01	; 1
  ec:	21 50       	subi	r18, 0x01	; 1
  ee:	80 40       	sbci	r24, 0x00	; 0
  f0:	90 40       	sbci	r25, 0x00	; 0
  f2:	e1 f7       	brne	.-8      	; 0xec <_init_sequence+0x2a>
  f4:	00 c0       	rjmp	.+0      	; 0xf6 <_init_sequence+0x34>
  f6:	00 00       	nop
  f8:	60 e0       	ldi	r22, 0x00	; 0
  fa:	82 e0       	ldi	r24, 0x02	; 2
  fc:	b7 df       	rcall	.-146    	; 0x6c <set_led>
  fe:	61 e0       	ldi	r22, 0x01	; 1
 100:	83 e0       	ldi	r24, 0x03	; 3
 102:	b4 df       	rcall	.-152    	; 0x6c <set_led>
 104:	2f e7       	ldi	r18, 0x7F	; 127
 106:	88 e3       	ldi	r24, 0x38	; 56
 108:	91 e0       	ldi	r25, 0x01	; 1
 10a:	21 50       	subi	r18, 0x01	; 1
 10c:	80 40       	sbci	r24, 0x00	; 0
 10e:	90 40       	sbci	r25, 0x00	; 0
 110:	e1 f7       	brne	.-8      	; 0x10a <_init_sequence+0x48>
 112:	00 c0       	rjmp	.+0      	; 0x114 <_init_sequence+0x52>
 114:	00 00       	nop
 116:	60 e0       	ldi	r22, 0x00	; 0
 118:	83 e0       	ldi	r24, 0x03	; 3
 11a:	a8 df       	rcall	.-176    	; 0x6c <set_led>
 11c:	61 e0       	ldi	r22, 0x01	; 1
 11e:	84 e0       	ldi	r24, 0x04	; 4
 120:	a5 df       	rcall	.-182    	; 0x6c <set_led>
 122:	2f e7       	ldi	r18, 0x7F	; 127
 124:	88 e3       	ldi	r24, 0x38	; 56
 126:	91 e0       	ldi	r25, 0x01	; 1
 128:	21 50       	subi	r18, 0x01	; 1
 12a:	80 40       	sbci	r24, 0x00	; 0
 12c:	90 40       	sbci	r25, 0x00	; 0
 12e:	e1 f7       	brne	.-8      	; 0x128 <_init_sequence+0x66>
 130:	00 c0       	rjmp	.+0      	; 0x132 <_init_sequence+0x70>
 132:	00 00       	nop
 134:	60 e0       	ldi	r22, 0x00	; 0
 136:	84 e0       	ldi	r24, 0x04	; 4
 138:	99 df       	rcall	.-206    	; 0x6c <set_led>
 13a:	61 e0       	ldi	r22, 0x01	; 1
 13c:	81 e0       	ldi	r24, 0x01	; 1
 13e:	96 cf       	rjmp	.-212    	; 0x6c <set_led>

00000140 <led_init>:
 140:	52 9a       	sbi	0x0a, 2	; 10
 142:	39 9a       	sbi	0x07, 1	; 7
 144:	3a 9a       	sbi	0x07, 2	; 7
 146:	3b 9a       	sbi	0x07, 3	; 7
 148:	e0 e0       	ldi	r30, 0x00	; 0
 14a:	f1 e0       	ldi	r31, 0x01	; 1
 14c:	10 82       	st	Z, r1
 14e:	11 82       	std	Z+1, r1	; 0x01
 150:	12 82       	std	Z+2, r1	; 0x02
 152:	13 82       	std	Z+3, r1	; 0x03
 154:	b6 cf       	rjmp	.-148    	; 0xc2 <_init_sequence>

00000156 <pid_init>:
 156:	08 95       	ret

00000158 <main>:
 158:	4b d0       	rcall	.+150    	; 0x1f0 <system_init>
 15a:	f2 df       	rcall	.-28     	; 0x140 <led_init>
 15c:	0b d0       	rcall	.+22     	; 0x174 <pwm_init>
 15e:	fb df       	rcall	.-10     	; 0x156 <pid_init>
 160:	81 e4       	ldi	r24, 0x41	; 65
 162:	01 d0       	rcall	.+2      	; 0x166 <pwm_set_all>
 164:	ff cf       	rjmp	.-2      	; 0x164 <main+0xc>

00000166 <pwm_set_all>:
 166:	80 93 b4 00 	sts	0x00B4, r24	; 0x8000b4 <__EEPROM_REGION_LENGTH__+0x7f00b4>
 16a:	80 93 b3 00 	sts	0x00B3, r24	; 0x8000b3 <__EEPROM_REGION_LENGTH__+0x7f00b3>
 16e:	88 bd       	out	0x28, r24	; 40
 170:	87 bd       	out	0x27, r24	; 39
 172:	08 95       	ret

00000174 <pwm_init>:
 174:	53 9a       	sbi	0x0a, 3	; 10
 176:	55 9a       	sbi	0x0a, 5	; 10
 178:	56 9a       	sbi	0x0a, 6	; 10
 17a:	23 9a       	sbi	0x04, 3	; 4
 17c:	84 b5       	in	r24, 0x24	; 36
 17e:	80 68       	ori	r24, 0x80	; 128
 180:	84 bd       	out	0x24, r24	; 36
 182:	84 b5       	in	r24, 0x24	; 36
 184:	80 62       	ori	r24, 0x20	; 32
 186:	84 bd       	out	0x24, r24	; 36
 188:	84 b5       	in	r24, 0x24	; 36
 18a:	83 60       	ori	r24, 0x03	; 3
 18c:	84 bd       	out	0x24, r24	; 36
 18e:	85 b5       	in	r24, 0x25	; 37
 190:	83 60       	ori	r24, 0x03	; 3
 192:	85 bd       	out	0x25, r24	; 37
 194:	e0 eb       	ldi	r30, 0xB0	; 176
 196:	f0 e0       	ldi	r31, 0x00	; 0
 198:	80 81       	ld	r24, Z
 19a:	80 68       	ori	r24, 0x80	; 128
 19c:	80 83       	st	Z, r24
 19e:	80 81       	ld	r24, Z
 1a0:	80 62       	ori	r24, 0x20	; 32
 1a2:	80 83       	st	Z, r24
 1a4:	80 81       	ld	r24, Z
 1a6:	83 60       	ori	r24, 0x03	; 3
 1a8:	80 83       	st	Z, r24
 1aa:	e1 eb       	ldi	r30, 0xB1	; 177
 1ac:	f0 e0       	ldi	r31, 0x00	; 0
 1ae:	80 81       	ld	r24, Z
 1b0:	84 60       	ori	r24, 0x04	; 4
 1b2:	80 83       	st	Z, r24
 1b4:	8a e5       	ldi	r24, 0x5A	; 90
 1b6:	d7 df       	rcall	.-82     	; 0x166 <pwm_set_all>
 1b8:	2f ef       	ldi	r18, 0xFF	; 255
 1ba:	89 e6       	ldi	r24, 0x69	; 105
 1bc:	98 e1       	ldi	r25, 0x18	; 24
 1be:	21 50       	subi	r18, 0x01	; 1
 1c0:	80 40       	sbci	r24, 0x00	; 0
 1c2:	90 40       	sbci	r25, 0x00	; 0
 1c4:	e1 f7       	brne	.-8      	; 0x1be <pwm_init+0x4a>
 1c6:	00 c0       	rjmp	.+0      	; 0x1c8 <pwm_init+0x54>
 1c8:	00 00       	nop
 1ca:	8c e3       	ldi	r24, 0x3C	; 60
 1cc:	cc df       	rcall	.-104    	; 0x166 <pwm_set_all>
 1ce:	2f ef       	ldi	r18, 0xFF	; 255
 1d0:	84 e3       	ldi	r24, 0x34	; 52
 1d2:	9c e0       	ldi	r25, 0x0C	; 12
 1d4:	21 50       	subi	r18, 0x01	; 1
 1d6:	80 40       	sbci	r24, 0x00	; 0
 1d8:	90 40       	sbci	r25, 0x00	; 0
 1da:	e1 f7       	brne	.-8      	; 0x1d4 <pwm_init+0x60>
 1dc:	00 c0       	rjmp	.+0      	; 0x1de <pwm_init+0x6a>
 1de:	00 00       	nop
 1e0:	08 95       	ret

000001e2 <_set_cpu_clock>:
 1e2:	e1 e6       	ldi	r30, 0x61	; 97
 1e4:	f0 e0       	ldi	r31, 0x00	; 0
 1e6:	80 e8       	ldi	r24, 0x80	; 128
 1e8:	80 83       	st	Z, r24
 1ea:	81 e0       	ldi	r24, 0x01	; 1
 1ec:	80 83       	st	Z, r24
 1ee:	08 95       	ret

000001f0 <system_init>:
 1f0:	f8 df       	rcall	.-16     	; 0x1e2 <_set_cpu_clock>
 1f2:	78 94       	sei
 1f4:	08 95       	ret

000001f6 <_exit>:
 1f6:	f8 94       	cli

000001f8 <__stop_program>:
 1f8:	ff cf       	rjmp	.-2      	; 0x1f8 <__stop_program>
